:100000000C945D000C9485000C9485000C94850084
:100010000C9485000C9485000C9485000C9485004C
:100020000C9485000C9485000C9485000C9485003C
:100030000C9485000C9485000C9485000C9485002C
:100040000C9403030C9485000C9485000C9485009B
:100050000C9485000C9485000C9485000C9485000C
:100060000C9485000C9485000000000024002700FB
:100070002A0000000000250028002B0004040404CE
:100080000404040402020202020203030303030342
:10009000010204081020408001020408102001021F
:1000A00004081020000000080002010000030407FB
:1000B0000000000000000000B20411241FBECFEFBA
:1000C000D8E0DEBFCDBF21E0A8E4B1E001C01D92C1
:1000D000AD36B207E1F711E0A0E0B1E0EAE6FAE000
:1000E00002C005900D92A834B107D9F710E0CDE514
:1000F000D0E004C02197FE010E94D804CC35D1077E
:10010000C9F70E944D030C9433050C940000CF9264
:10011000DF92EF92FF920F931F93CF93DF936C01C7
:100120007A018B01C0E0D0E0CE15DF0589F0D8015F
:100130006D918D01D601ED91FC910190F081E02D42
:10014000C6010995892B11F47E0102C02196ECCFDE
:10015000C701DF91CF911F910F91FF90EF90DF903A
:10016000CF90089590E0FC01EC55FF4F3491FC01D5
:10017000E057FF4F2491FC01E458FF4FE491EE2338
:1001800009F43BC0332339F1333091F038F4313086
:10019000A9F0323001F584B58F7D12C0373091F06F
:1001A0003830A1F03430B9F4809180008F7D03C0E5
:1001B000809180008F77809380000DC084B58F7709
:1001C00084BD09C08091B0008F7703C08091B000DA
:1001D0008F7D8093B000F0E0EE0FFF1FEE58FF4FD1
:1001E000A591B4918FB7F894EC91611103C020955B
:1001F0002E2301C02E2B2C938FBF0895CF93DF9316
:1002000090E0FC01E057FF4F2491FC01E458FF4FC0
:100210008491882361F190E0880F991FFC01E859CF
:10022000FF4FC591D491FC01EE58FF4FA591B491B9
:10023000611109C09FB7F894888120958223888333
:10024000EC912E230BC0623061F49FB7F894388193
:10025000822F809583238883EC912E2B2C939FBF34
:1002600006C08FB7F894E8812E2B28838FBFDF91CB
:10027000CF9108953FB7F89480914D0190914E0130
:10028000A0914F01B091500126B5A89B05C02F3F0A
:1002900019F00196A11DB11D3FBFBA2FA92F982FAC
:1002A0008827820F911DA11DB11DBC01CD0142E027
:1002B000660F771F881F991F4A95D1F708958F926F
:1002C0009F92AF92BF92CF92DF92EF92FF920E94E5
:1002D0003A014B015C0188EBC82E8BE0D82EE12C53
:1002E000F12C0E943A01DC01CB0188199909AA0975
:1002F000BB09883E9340A105B10558F021E0C21A20
:10030000D108E108F10888EE880E83E0981EA11C50
:10031000B11CC114D104E104F10419F7FF90EF906E
:10032000DF90CF90BF90AF909F908F900895CF9324
:10033000DF93EC0160E08E810E94B20061E08E816B
:100340000E94B20060E08E810E94B2008BE891E0D2
:100350000197F1F7DF91CF910895CF92DF92EF925D
:10036000FF920F931F93CF93DF937C016C0187E083
:10037000C80ED11CC0E0D0E0062F10E0B8010C2E52
:1003800002C0759567950A94E2F76170F601819154
:100390006F010E94B2002196C430D10579F7C701E0
:1003A000DF91CF911F910F91FF90EF90DF90CF9051
:1003B0000C949701CF92DF92EF92FF920F931F93CD
:1003C000CF93DF93EC01F62E642F8C810E94B20054
:1003D0008D818F3F19F060E00E94B2008F850F2D54
:1003E00010E084FF25C06E0187E0C80ED11CE12C0F
:1003F000F12CB8010E2C02C0759567950A94E2F7AE
:100400006170F60181916F010E94B200FFEFEF1A57
:10041000FF0A88E0E816F10461F7CE01DF91CF9181
:100420001F910F91FF90EF90DF90CF900C94970168
:10043000B80184E0759567958A95E1F7CE010E9431
:10044000AD016F2DCE01DF91CF911F910F91FF90E4
:10045000EF90DF90CF900C94AD0141E00E94DA0163
:1004600081E090E0089540E00C94DA01843008F0D7
:1004700083E090916801891710F08FEF890FE82FC2
:10048000F0E0EB5AFE4F6489606885E591E00C94DA
:10049000330261E00E9433028BE39FE10197F1F7A1
:1004A0000895EF92FF920F931F93CF93DF93EC0188
:1004B000623018F08F8588608F876B8B1C8A80E490
:1004C0008D8B80E18E8B80E58F8B61E08C810E942B
:1004D000FE008D818F3F19F061E00E94FE0061E017
:1004E0008E810E94FE007E0187E0E80EF11C00E094
:1004F00010E08F8584FD03C084E090E002C088E0B6
:1005000090E0081719074CF461E0F70181917F0131
:100510000E94FE000F5F1F4FECCF8BE39DE0019721
:10052000F1F760E08C810E94B20060E08E810E9451
:10053000B2008D818F3F19F060E00E94B2006F859C
:1005400064FD1DC063E0CE010E94AD010BE416E422
:10055000C8010197F1F763E0CE010E94AD01C80127
:100560000197F1F763E0CE010E94AD0183E592E0CF
:100570000197F1F762E0CE010E94AD0116C0606202
:10058000CE010E9433028BE496E40197F1F76F8568
:100590006062CE010E94330283E592E00197F1F799
:1005A0006F856062CE010E9433026F856062CE016A
:1005B0000E94330284E0888B6CE0CE010E943302FB
:1005C000CE010E94490282E0898B66E0CE01DF9174
:1005D000CF911F910F91FF90EF900C9433020097F1
:1005E00069F0FC0101900020E9F73197AF01481B49
:1005F000590BBC0185E591E00C94870080E090E008
:1006000008950E94DE041F920F920FB60F921124DC
:100610002F933F938F939F93AF93BF938091490103
:1006200090914A01A0914B01B0914C013091480149
:1006300023E0230F2D3720F40196A11DB11D05C025
:1006400026E8230F0296A11DB11D20934801809337
:10065000490190934A01A0934B01B0934C018091C2
:100660004D0190914E01A0914F01B0915001019622
:10067000A11DB11D80934D0190934E01A0934F0198
:10068000B0935001BF91AF919F918F913F912F9166
:100690000F900FBE0F901F901895CF93DF93CDB79B
:1006A000DEB7A5970FB6F894DEBF0FBECDBF789426
:1006B00084B5826084BD84B5816084BD85B5826067
:1006C00085BD85B5816085BD80916E008160809318
:1006D0006E00109281008091810082608093810081
:1006E0008091810081608093810080918000816091
:1006F000809380008091B10084608093B1008091EC
:10070000B00081608093B00080917A008460809313
:100710007A0080917A00826080937A0080917A00DA
:10072000816080937A0080917A00806880937A005B
:100730001092C10060E08EE00E94FE0061E08AE05D
:100740000E94FE0062E085E591E00E94510280E097
:100750000E9436028CE091E00E94EF020E945F014D
:1007600085E591E00E9449028AE191E00E94EF0252
:1007700081E00E94360288E291E00E94EF020E942E
:100780005F0180E00E94360285E591E00E94490207
:1007900080E4382E44244A9493E0592E612C712C25
:1007A0002AE0C22ED12CE12CF12C30927C008091D9
:1007B0007A00806480937A0080917A0086FDFCCF75
:1007C000A091780080917900B0E0B82BB0935401EB
:1007D000A09353012FEF30E00E94D104A3019201B6
:1007E0000E94E3048901309352012093510161E09A
:1007F0008AE02AA33BA34CA35DA30E94FE002AA18A
:100800003BA14CA15DA1211531054105510511F414
:1008100060E006C02F3F31054105510529F461E034
:100820008AE00E94B20043C0EEEAF0E08491833097
:10083000F9F048F48130B9F08230A1F584B58062D6
:1008400084BD28BD34C08730E9F0883019F1843088
:1008500049F58091800080628093800030938B0006
:1008600020938A0024C084B5806884BD27BD1FC042
:10087000809180008068809380003093890020936D
:10088000880015C08091B00080688093B0002093EC
:10089000B3000DC08091B00080628093B0002093BF
:1008A000B40005C0003811050CF0B9CFB1CF80E01D
:1008B0000E94360288E391E00E94EF0220915101EC
:1008C000309152014901330FAA08BB08B7FE26C078
:1008D000E0915501F09156010190F081E02D6DE21B
:1008E00085E591E0099522273327A90128193909BF
:1008F0004A095B0919A28E010F5D1F4FCA01B90198
:10090000A70196010E940205605DF80162938F01C4
:10091000211531054105510589F715C0A50194013F
:1009200019A28E010F5D1F4FCA01B901A7019601DF
:100930000E940205605DF80162938F012115310567
:100940004105510589F7C8010E94EF0285E491E055
:100950000E94EF0280E090E0892B09F426CF0E94EC
:10096000000023CFE5E5F1E01382128288E091E0F8
:100970009183808388E084838FEF858389E08683F9
:1009800084E0878385E0808786E0818787E08287AF
:100990001386148615861686178661E0CF010C949F
:1009A00051020E942405B7FF0895821B930B0895FE
:1009B000EE0FFF1F0590F491E02D099481E090E087
:1009C000F8940C943305052E97FB1EF400940E94B6
:1009D000FA0457FD07D00E94020507FC03D04EF42D
:1009E0000C94FA0450954095309521953F4F4F4F08
:1009F0005F4F089590958095709561957F4F8F4FCB
:100A00009F4F0895A1E21A2EAA1BBB1BFD010DC02A
:100A1000AA1FBB1FEE1FFF1FA217B307E407F507AE
:100A200020F0A21BB30BE40BF50B661F771F881F8A
:100A3000991F1A9469F760957095809590959B0120
:100A4000AC01BD01CF010895A29FB001B39FC001C9
:100A5000A39F700D811D1124911DB29F700D811DEA
:0A0A60001124911D0895F894FFCFB2
:100A6A0001000000000000002D0287002020202045
:100A7A0057454C434F4D4520210020202020444318
:100A8A00204D4F544F5220002020535045454420BA
:100A9A00434F4E54524F4C004D6F746F7220537037
:080AAA006565643A000D0A00C5
:00000001FF
