:100000000C9462000C948A000C948A000C948A0070
:100010000C948A000C948A000C948A000C948A0038
:100020000C948A000C948A000C948A000C948A0028
:100030000C948A000C948A000C948A000C948A0018
:100040000C949F030C948A000C948A000C948A00F0
:100050000C948A000C948A000C948A000C948A00F8
:100060000C948A000C948A000000000024002700F1
:100070002A0000000000250028002B0000000000DE
:1000800023002600290004040404040404040202DA
:100090000202020203030303030301020408102007
:1000A0004080010204081020010204081020000012
:1000B0000008000201000003040700000000000027
:1000C0000000A50511241FBECFEFD8E0DEBFCDBFD5
:1000D00021E0A4E7B1E001C01D92AD39B207E1F71C
:1000E00011E0A0E0B1E0E0E5FCE002C005900D9277
:1000F000A437B107D9F710E0C2E6D0E004C02197D9
:10010000FE010E94CB05C136D107C9F70E94E90361
:100110000C9426060C940000CF92DF92EF92FF928F
:100120000F931F93CF93DF936C017A018B01C0E093
:10013000D0E0CE15DF0589F0D8016D918D01D60193
:10014000ED91FC910190F081E02DC6010995892B7C
:1001500011F47E0102C02196ECCFC701DF91CF914F
:100160001F910F91FF90EF90DF90CF900895833013
:1001700081F028F4813099F08230A1F00895873021
:10018000A9F08830B9F08430D1F4809180008F7D5F
:1001900003C0809180008F7780938000089584B59C
:1001A0008F7702C084B58F7D84BD08958091B000A3
:1001B0008F7703C08091B0008F7D8093B000089549
:1001C000CF93DF93282F30E0F901E255FF4F849160
:1001D000F901E656FF4FD491F901EA57FF4FC49158
:1001E000CC2391F081110E94B700EC2FF0E0EE0FCC
:1001F000FF1FE458FF4FA591B491EC91ED2381E0EE
:1002000090E021F480E002C080E090E0DF91CF91A7
:1002100008951F93CF93DF93282F30E0F901E25523
:10022000FF4F8491F901E656FF4FD491F901EA5747
:10023000FF4FC491CC23C9F0162F81110E94B70043
:10024000EC2FF0E0EE0FFF1FEE58FF4FA591B49199
:100250008FB7F894111105C09C91ED2FE095E9231B
:1002600002C0EC91ED2BEC938FBFDF91CF911F91EA
:100270000895CF93DF9390E0FC01E656FF4F249161
:10028000FC01EA57FF4F8491882361F190E0880FC9
:10029000991FFC01E859FF4FC591D491FC01EE581C
:1002A000FF4FA591B491611109C09FB7F89488815F
:1002B000209582238883EC912E230BC0623061F459
:1002C0009FB7F8943881822F809583238883EC919F
:1002D0002E2B2C939FBF06C08FB7F894E8812E2B4E
:1002E00028838FBFDF91CF9108951F93CF93DF9322
:1002F000182FEB0161E00E943901209711F460E0B2
:1003000004C0CF3FD10539F461E0812FDF91CF9157
:100310001F910C940901E12FF0E0E255FF4FE491A9
:10032000E330F9F048F4E130B9F0E230A1F584B5FA
:10033000806284BDC8BD34C0E730E9F0E83019F10F
:10034000E43049F580918000806280938000D093F2
:100350008B00C0938A0024C084B5806884BDC7BD6B
:100360001FC080918000806880938000D0938900B6
:10037000C093880015C08091B00080688093B00061
:10038000C093B3000DC08091B00080628093B00034
:10039000C093B40005C0C038D1050CF0B5CFAFCFC5
:1003A000DF91CF911F9108953FB7F8948091790123
:1003B00090917A01A0917B01B0917C0126B5A89B18
:1003C00005C02F3F19F00196A11DB11D3FBFBA2FE7
:1003D000A92F982F8827820F911DA11DB11DBC0147
:1003E000CD0142E0660F771F881F991F4A95D1F70C
:1003F00008958F929F92AF92BF92CF92DF92EF9229
:10040000FF926B017C010E94D4014B015C01C1147D
:10041000D104E104F104F1F00E94D401DC01CB012C
:1004200088199909AA09BB09883E9340A105B1051D
:1004300070F321E0C21AD108E108F10888EE880EB5
:1004400083E0981EA11CB11CC114D104E104F10485
:1004500019F7DDCFFF90EF90DF90CF90BF90AF9076
:100460009F908F900895CF93DF93EC0160E08E8191
:100470000E94090161E08E810E94090160E08E8185
:100480000E9409018BE891E00197F1F7DF91CF918C
:100490000895CF92DF92EF92FF920F931F93CF9325
:1004A000DF937C016C0187E0C80ED11CC0E0D0E076
:1004B000062F10E0B8010C2E02C0759567950A94BE
:1004C000E2F76170F60181916F010E9409012196A6
:1004D000C430D10579F7C701DF91CF911F910F91FA
:1004E000FF90EF90DF90CF900C943302CF92DF9289
:1004F000EF92FF920F931F93CF93DF93EC01F62EB1
:10050000642F8C810E9409018D818F3F19F060E07A
:100510000E9409018F850F2D10E084FF25C06E0118
:1005200087E0C80ED11CE12CF12CB8010E2C02C0C2
:10053000759567950A94E2F76170F60181916F01F4
:100540000E940901FFEFEF1AFF0A88E0E816F104A4
:1005500061F7CE01DF91CF911F910F91FF90EF9046
:10056000DF90CF900C943302B80184E075956795C5
:100570008A95E1F7CE010E9449026F2DCE01DF91ED
:10058000CF911F910F91FF90EF90DF90CF900C943F
:10059000490241E00E94760281E090E0089540E047
:1005A0000C947602843008F083E0909198018917CA
:1005B00010F08FEF890FE82FF0E0EB57FE4F6489C2
:1005C000606885E891E00C94CF0261E00E94CF0260
:1005D0008BE39FE10197F1F70895EF92FF920F935C
:1005E0001F93CF93DF93EC01623018F08F85886002
:1005F0008F876B8B1C8A80E48D8B80E18E8B80E5EE
:100600008F8B61E08C810E9439018D818F3F19F0C1
:1006100061E00E94390161E08E810E9439017E0112
:1006200087E0E80EF11C00E010E08F8584FD03C038
:1006300084E090E002C088E090E0081719074CF4CD
:1006400061E0F70181917F010E9439010F5F1F4F27
:10065000ECCF8BE39DE00197F1F760E08C810E9485
:10066000090160E08E810E9409018D818F3F19F0A0
:1006700060E00E9409016F8564FD1DC063E0CE014A
:100680000E9449020BE416E4C8010197F1F763E008
:10069000CE010E944902C8010197F1F763E0CE0143
:1006A0000E94490283E592E00197F1F762E0CE01F2
:1006B0000E94490216C06062CE010E94CF028BE404
:1006C00096E40197F1F76F856062CE010E94CF0238
:1006D00083E592E00197F1F76F856062CE010E9499
:1006E000CF026F856062CE010E94CF0284E0888BCA
:1006F0006CE0CE010E94CF02CE010E94E50282E0B2
:10070000898B66E0CE01DF91CF911F910F91FF9011
:10071000EF900C94CF02009769F0FC01019000204B
:10072000E9F73197AF01481B590BBC0185E891E00F
:100730000C948C0080E090E008950E94D1051F92F7
:100740000F920FB60F9211242F933F938F939F9385
:10075000AF93BF938091750190917601A09177013D
:10076000B09178013091740123E0230F2D3720F4EC
:100770000196A11DB11D05C026E8230F0296A11DFB
:10078000B11D209374018093750190937601A0931D
:100790007701B09378018091790190917A01A091CD
:1007A0007B01B0917C010196A11DB11D809379015F
:1007B00090937A01A0937B01B0937C01BF91AF919C
:1007C0009F918F913F912F910F900FBE0F901F908F
:1007D0001895CF93DF93CDB7DEB7A1970FB6F894F6
:1007E000DEBF0FBECDBF789484B5826084BD84B572
:1007F000816084BD85B5826085BD85B5816085BD1C
:1008000080916E00816080936E00109281008091D3
:10081000810082608093810080918100816080935B
:100820008100809180008160809380008091B10080
:1008300084608093B1008091B00081608093B000AB
:1008400080917A00846080937A0080917A0082603F
:1008500080937A0080917A00816080937A00809101
:100860007A00806880937A001092C10060E082E094
:100870000E94390161E082E00E94090160E081E0AC
:100880000E94390161E081E00E94090160E080E09E
:100890000E94390161E080E00E94090161E08BE083
:1008A0000E94390161E08AE00E94390161E08DE037
:1008B0000E94390161E08CE00E94390162E085E824
:1008C00091E00E94ED0280E00E94D20282E191E07C
:1008D0000E948B0360ED77E080E090E00E94F901D8
:1008E00085E891E00E94E50280E291E00E948B039E
:1008F00081E00E94D2028EE291E00E948B0368EEBA
:1009000073E080E090E00E94F90180E4382E4424F6
:100910004A9493E0592E612C712C2AE0C22ED12CDE
:10092000E12CF12C30927C0080917A0080648093DD
:100930007A0080917A0086FDFCCFA09178008091AA
:100940007900B0E0B82BB0938401A09383012FEF1E
:1009500030E00E94C405A30192010E94D6053093A5
:1009600082012093810182E00E94E00090930501C2
:1009700080930401892BE9F481E090E09093800159
:1009800080937F0161E08DE00E94090110927E0159
:1009900010927D0160E08CE00E94090185E891E001
:1009A0000E94E50280E00E94D2028EE391E00E9464
:1009B0008B0380917F0190918001019739F46091C0
:1009C0008101709182018BE00E94750181E00E949B
:1009D000E0009093030180930201892BE9F4E1E0A8
:1009E000F0E0F0937E01E0937D0161E08CE00E94F5
:1009F00009011092800110927F0160E08DE00E9459
:100A0000090185E891E00E94E50280E00E94D2029F
:100A10008AE491E00E948B0380917D0190917E0198
:100A2000019739F460918101709182018AE00E94FE
:100A3000750180E00E94E000909301018093000125
:100A4000892BD9F410927E0110927D0160E08CE038
:100A50000E9409011092800110927F0160E08DE0F8
:100A60000E94090185E891E00E94E50280E00E9471
:100A7000D20286E591E00E948B0380917D019091E6
:100A80007E01019739F080917F019091800101975B
:100A900009F053C081E00E94D20282E691E00E94F8
:100AA0008B0320918101309182014901330FAA0803
:100AB000BB08B7FE26C0E0918501F0918601019048
:100AC000F081E02D6DE285E891E00995222733273A
:100AD000A901281939094A095B0919A28E010F5D7C
:100AE0001F4FCA01B901A70196010E94F505605D7B
:100AF000F80162938F01211531054105510589F7F0
:100B000015C0A501940119A28E010F5D1F4FCA01E6
:100B1000B901A70196010E94F505605DF801629395
:100B20008F01211531054105510589F7C8010E9442
:100B30008B0380E791E00E948B0380E090E0892B9B
:100B400009F4F0CE0E940000EDCEE5E8F1E013825A
:100B500012828EE091E09183808388E084838FEF1E
:100B6000858389E0868384E0878385E0808786E0CB
:100B7000818787E0828713861486158616861786F6
:100B800061E0CF010C94ED020E941706B7FF0895B3
:100B9000821B930B0895EE0FFF1F0590F491E02D3B
:100BA000099481E090E0F8940C942606052E97FBBA
:100BB0001EF400940E94ED0557FD07D00E94F50534
:100BC00007FC03D04EF40C94ED05509540953095FC
:100BD00021953F4F4F4F5F4F0895909580957095A9
:100BE00061957F4F8F4F9F4F0895A1E21A2EAA1B48
:100BF000BB1BFD010DC0AA1FBB1FEE1FFF1FA217CD
:100C0000B307E407F50720F0A21BB30BE40BF50BC9
:100C1000661F771F881F991F1A9469F76095709552
:100C2000809590959B01AC01BD01CF010895A29FD5
:100C3000B001B39FC001A39F700D811D1124911DB0
:100C4000B29F700D811D1124911D0895F894FFCF5E
:100C50000100010001000100000000000000C902C5
:100C60008C002020202057454C434F4D452021002B
:100C7000202020204443204D4F544F52200020205C
:100C8000535045454420434F4E54524F4C00202072
:100C90002020464F525741524400202020205245E8
:100CA000564552534500202020202053544F5020B9
:100CB0002100204D6F746F722053706565643A0097
:040CC0000D0A000019
:00000001FF
